:100300000FEF02F0FFFFFFFFFACF15F0FBCF16F063
:10031000E1CF17F0E2CF18F0D9CF19F0DACF1AF009
:10032000F3CF1BF0F4CF1CF04EC01DF04FC01EF0F9
:1003300050C01FF051C020F052C021F053C022F035
:1003400054C023F055C024F056C025F057C026F005
:1003500058C027F059C028F01DEE2EF0F2BC9DA029
:1003600005D09EA003D0A1EC66F030D0F2BC9DAACF
:1003700005D09EAA03D011EC44F028D0F2BC9DA871
:1003800005D09EA803D01FEC5FF020D0F0B6F0A0FF
:1003900003D0D8EC67F01AD0F0B8F0A203D0D5ECB7
:1003A00067F014D0F2B6F2A003D076EC66F00ED06F
:1003B000F2BC9DA605D09EA603D078EC1CF006D01A
:1003C000F2BCA0A603D0A1B60AEC68F028C059F090
:1003D00027C058F026C057F025C056F024C055F06D
:1003E00023C054F022C053F021C052F020C051F07D
:1003F0001FC050F01EC04FF01DC04EF01CC0F4FFD7
:100400001BC0F3FF1AC0DAFF19C0D9FF18C0E2FF02
:1004100017C0E1FF16C0FBFF15C0FAFF11001CEE6C
:1004200028F0D5EF2FF0CFEC67F0030103B18FD3A5
:1004300050EC06F0696F6939E832070BE80601E015
:10044000A9D003011D5101E0A5D00001EB05010178
:100450006F6F1AD00001EB51E925EC6F000EEA2115
:10046000ED6F01016F510001EC5D8C6FED51D8A073
:10047000ED0550EC4DF0B6EC61F0100E01016F652A
:1004800002D06F5F01D06F6B6F51E4E1420E00014B
:10049000D66F030ED76FE9C0D8F0EAC0D9F0EB51A0
:1004A000FC0FDA6FCAEC52F0D6C072F1D7C073F10C
:1004B000D8C074F1D9C075F1ECDBD7EC59F093DBFF
:1004C00072516A1909E173516B1906E174516C1983
:1004D00003E175516D191AE083EC4DF006E002510D
:1004E0000F0B030A09E1E35107E002B903D049EC1D
:1004F00062F002D0F00E0217020E03011219D8A406
:1005000012000301A5EC06F069EF4FF00301025160
:100510000F0B030A03E1D55126EC62F0E9C076F136
:10052000EAC077F1010120EE07F0E8DBDECF1EF331
:10053000DECF1FF3DECF20F3DECF21F320EE0CF071
:10054000DDDBDF500F0BE1EC5BF0EFDBD7DBDF38FF
:10055000070B0001606FE9DBD1DBDF500F0BADEC67
:1005600062F076C160F077C161F0EB5103EC68F0A6
:1005700076C1A0F077C1A1F023EC4DF0E66A16EC4D
:100580003AF00301CFEC06F0CAEC06F0020E1219A5
:10059000B8E0120001016939E832070B030A06E0EE
:1005A0006939E832070B050A01E0CED20301986BE6
:1005B000E9C07DF1EAC07EF1020E121901E005D119
:1005C0008ADB00DB03016251DE1809E16351DE18AA
:1005D00006E16451DE1803E16551DE18D8A4F5D0B8
:1005E00004A5F3D07DC160F07EC161F0D5EC50F080
:1005F000000987E0D7DAAEDB0E510101795D030116
:100600000F5101017A5905E310C37BF111C37CF14D
:1006100007D0010E03011025CCDB112101017C6FF5
:10062000ECDA010E716FB2EC3DF00DDBD5DA100E95
:10063000646F57EC51F0F0DA57EC51F0660EC86F6A
:10064000030EC96FD60E13DBFEEC11F000DBC4DA2B
:10065000040E646F57EC51F01CDBD7EC59F0C3DA91
:100660006A5172190BE16B51731908E16C517419DD
:1006700005E16D51751901E044D701D042D79ADAEE
:100680000E51DE5C0F51DE5821E38CDA31DB0E5166
:100690000001EC5F03010F5187DB905D0001ED511C
:1006A000030191590DE23050311001E12AD728ECB5
:1006B00029F0060E9C6F01D824D70500FA6E7ED073
:1006C00071DADECF0EF3DDCF0FF320D06BDA10DB63
:1006D0000E1D0001EE6F03010F1D0001EF6FEC51C5
:1006E000EE27ED51EF23030190510001EE5D030170
:1006F00091510001EF5906E203010E6B0F6B104B95
:10070000112B04D030503110D2E1FBD603010E2959
:1007100007E10F2905E1102903E1112901E1F2D7D1
:1007200002510F0B080A08E1D65126EC62F00301D2
:10073000D75126EC62F007D002510F0B030A03E1F8
:10074000D75126EC62F00CDB42DA23DAB0DA03E1AF
:10075000ED51EF1925E0A4DA666F0001E94BEA2BB1
:10076000EB51F40F0101786F190E6E6FE9C0A0F024
:10077000D2DAA26F010EA36F0EC3A4F00FC3A5F0CF
:1007800010C3A6F011C3A7F0760EA86F030E53DABC
:10079000010EAD6F3BEC29F0FF0EE925B4DA01D074
:1007A000EFDA03010383CCDA01E1ABD66BDA010E99
:1007B00000019C6F01D8A5D60500FA6E3050FD6E81
:1007C0003150FE6EFF6AFA50120085DAFBD9030140
:1007D0001E51DE1809E11F51DE1806E12051DE1816
:1007E00003E12151DE1801E0AFD1DCD9B3DA0A51BF
:1007F0000101795D03010B5101017A5905E30CC335
:100800007BF10DC37CF107D0010E03010C25D1DA79
:100810000D2101017C6FF1D9716B010EB2EC3DF03D
:1008200012DADAD9100E646F57EC51F0F5D957ECA3
:1008300051F0DEEC11F01BDAFEEC11F008DACCD945
:10084000040E646F57EC51F024DAD7EC59F0CBD991
:100850006A51721909E16B51731906E16C517419EF
:1008600003E16D51751901E06FD1A4D90A51DE5C25
:100870000B51DE5827E396D93BDA0A510001EC5FB1
:1008800003010B5191DA8E5D0001ED5103018F5987
:1008900016E2009155DA10E0009B000E28EC29F0DA
:1008A0009C6B01D809D00500FA6E3050FD6E3150B6
:1008B000FE6EFF6AFA501200030103934CD072D906
:1008C00055DA3CD08E510001EC6F03018F510001CD
:1008D000ED6FEE6BEF6B66D9DECFF0F0DDCFF1F0B0
:1008E00003010A510001F05DF26F03010B51000199
:1008F000F159F36FF46BD8A0F407F451F56FFF0EC4
:10090000F225F66FFF0EF321F76F000EF421F86F5A
:10091000000EF521F96FEC51F65DED51F759EE51EE
:10092000F859F951800AFA6FEF51800AFA5901E338
:100930000BD138D91BDA03010C4B0D2B496A486ADD
:100940000101CB6B03010A2908E10B2906E10C29FF
:1009500004E10D2902E1048319D602510F0B030AA9
:1009600003E1D75126EC62F0010E0301CA6F7DC18D
:1009700060F07EC161F00BEC57F001010AD91DE077
:1009800008D97D250001EC6F00DAED6F080EEC252B
:10099000D96E000EED21DA6EDF5010E0080E010175
:1009A0007D2500018A6FF1D98B6F0101F2D800011A
:1009B0008C6FF7EC1FF0DFD901D0D2D908D9E9D874
:1009C00076D903E1ED51EF194FE06AD9666F000166
:1009D000E94BEA2B0101DDD80001EC6FEC51EB5D36
:1009E000F40F0101786FD5D8190F6E6F66510EE0C4
:1009F000E9C0A0F090D92FD9F6EC11F01CD9AD6B5D
:100A00003BEC29F0FF0EE9257ED92FD00001DFD87D
:100A1000C0D80001EE6FEF6B0D0EEE27000EEF2336
:100A2000EC51EE5DEF51800AF06FED51800AF05904
:100A30001BE2E9C0A0F0EAC0A1F0010178050001C5
:100A40000AD9F2EC11F0F7D8AD6B3BEC29F00101BB
:100A5000A0D80AE1E9C08AF0EAC08BF0780500016D
:100A60008C6FF7EC1FF087D98BD9010E0301CA6F89
:100A7000C26BC36BE06B0099038300A136D0010108
:100A800020EE05F09FD8DFAA2DD00301009127D9D1
:100A90000FE0009BF7D867C19CF001D809D0050092
:100AA000FA6E3050FD6E3150FE6EFF6AFA50120041
:100AB0000301039302BB00BB3BD000B302D000A7ED
:100AC00037D0FFD8F5EC37F0000909E1000E28D93E
:100AD00012EC36F000092CE10301009729D004EC58
:100AE00068F026D07CEC50F023D0F9D80FE0009BC2
:100AF000C9D867C19CF001D809D00500FA6E305002
:100B0000FD6E3150FE6EFF6AFA501200030102BB07
:100B100000BB0ED000B302D000A70AD0D2D8F5ECAB
:100B200037F00009DCE1000EFBD812EC36F0D4D728
:100B3000020E03011219D8A412009DEC63F000010B
:100B4000EC6FECB11200DDD4000E56EF4DF03050DA
:100B50003110D8B412009DEC63F00001EC6FECB7DB
:100B60000CD0E7D8030E9C6F0500FA6E3050FD6E76
:100B70003150FE6EFF6AFA501200DBD8020E9C6FF5
:100B80000500FA6E3050FD6E3150FE6EFF6AFA506D
:100B9000120020EE05F07D51D9267E51DA22DF5079
:100BA0000F0B1200010120EE06F07D51D9267E5177
:100BB000DA22120020EE06F07D51D9267E51DA228B
:100BC000030112007D51D9267E51DA221200EB5129
:100BD000EC6FED6B01011200616FD60E626F020EB9
:100BE000636F656B12006BC06AF16CC06BF16DC016
:100BF0006CF16EC06DF10101120079C16BF07AC128
:100C00006CF07BC16DF07CC16EF00001EB51FC0F0C
:100C10006F6F490E706F490C290E606F0B0E616F7C
:100C2000E9C062F0EAC063F0FC0EEB25646F656B0F
:100C3000FF0E6523FF0CA96F6EC1AAF0190EAB6FF2
:100C40000B0EAC6F1200190E606F0B0E1200720EBD
:100C5000606F010E1200A26F010EA36F0AC3A4F011
:100C60000BC3A5F00CC3A6F00DC3A7F0010CCA6F0F
:100C7000020ECB6F190ECC6F0B0ECD6FEB510C0F1C
:100C8000CE6F120070C199F071C19AF078C19BF0DB
:100C90001200E9C06BF0EAC06CF0EBC06DF012001E
:100CA000E9C0D9FFEAC0DAFFDF50010112000001FC
:100CB000EE6FEF6B0C0EEE27000EEF23EC51EE19EA
:100CC0001200010E00017E6F680E7F6F010E806FB3
:100CD0000301DF511200010120EE01F01200010EAC
:100CE0000101676FF00E030102173050311012003E
:100CF000DECFECF0DDCFEDF0030112007651D92606
:100D00007751DA2212000101706FFF0E0001EA2113
:100D10000101716F1200EAC0A1F078050001120014
:100D2000E26BE36BE46BE56B1200010120EE0BF06C
:100D30001200E9C099F0EAC09AF0EBC09BF01200F3
:100D4000F00E02173050311012000251F00B090959
:100D5000026F1200DECF79F1DDCF7AF103011200CC
:100D6000080E0001E927000EEA23000CDECF0AF38B
:100D7000DDCF0BF312008AC0E9F08BC0EAF012005D
:100D80000101786B706B716B1200000E01017E2106
:100D9000000112000A6B0B6B0C6B0D6B1200066BE3
:100DA000076B086B096B12000001ED5BEC5103014E
:100DB000120001017B6F0301000CFBEC5AF04CECBC
:100DC00033F0E9D975EC32F00201B951B5EC33F0EA
:100DD0000201B60501E068D1ACC262F0390E80ECC8
:100DE00063F0C0C27BF0010E00017B170201D890B6
:100DF000BF3500017C6F0201B839DCD91D0E80ECD3
:100E000063F07AC07BF0030E00017B17BAC27CF05E
:100E1000010E7C17D8907C37D8907C370201B73907
:100E2000C9D91E0E80EC63F00201BC51BD113FE038
:100E3000BCC27EF0BDC27FF00001806B816B21D00F
:100E4000A1D97D0E000199D906EC56F00FD09AD9A0
:100E5000FA0E000192D906EC56F008D093D9F40EA0
:100E600000016D6F010EC4D906EC56F069C07EF02A
:100E70006AC07FF06BC080F06CC081F00BD094D959
:100E800009D00201B851070ADBE00F0AE0E0010ACD
:100E9000E5E0F5D70201B72900017B6F05D0D890B6
:100EA000813380337F337E337B2FF9D701D07CD9D8
:100EB0007EC062F0240E80EC63F079C062F01F0EF9
:100EC00080EC63F0260EDCEC61F0826F0C0E020108
:100ED000B71906E1070EB81909E0080EB81906E0BF
:100EE0000B0EB71906E1070EB81903E1000182875E
:100EF00002D000018297828582C062F0260E80ECCB
:100F000063F0310EDCEC61F0826FF80E8217030E95
:100F1000821365D980EC63F00A0E0001626F370E10
:100F200080EC63F0120E0201CF1925E1070EB8190B
:100F300003E0080EB81913E1310EDCEC61F0826FAA
:100F4000829F4DD980EC63F0400E0001626F2F0E3E
:100F500080EC63F00001626B300E80EC63F0090EF0
:100F60000201B81908E1310EDCEC61F0826F828F6A
:100F700036D980EC63F0330EDCEC61F0826F829D39
:100F80008281BEC27BF0010E7B17060E7C6FD8906B
:100F90007B377C2FFCD77B51821382C062F0330EEB
:100FA00080EC63F0BEC27BF0010E00017B17D8908D
:100FB0007B37D8907B35FF0A1D0B826F82C062F0B1
:100FC0003B0E80EC63F003D9200E80EC63F0AAC2E4
:100FD00062F0210E80EC63F008D980EC63F0000130
:100FE000626B0E0E80EC63F00001626B0F0E80EC02
:100FF00063F0120E0201CF1954E1090EB8191AE17B
:10100000800E9E5D130E9F59610EA059330EA1599B
:1010100011E39E05F70E9F59CB0EA0593C0EA15926
:1010200009E2020ECDD880EC63F0640ED5D880ECD6
:1010300063F022D0090EB8191BE1800E9E5D1A0ED6
:101040009F59700EA059180EA15912E3410E9E5DD2
:10105000DD0E9F594A0EA0591F0EA15909E2020E3A
:10106000AFD880EC63F07F0EB7D880EC63F004D08B
:10107000030EA6D880EC63F0090E0201B8190AE14C
:10108000BE0508E1A0D880EC63F0190EABD880EC67
:1010900063F007D098D880EC63F01D0EA3D880ECE5
:1010A00063F0ADD880EF63F0A2C26DF0A3C26EF022
:1010B000A4C26FF0A5C270F098EC4FF0A6C26DF01C
:1010C000A7C26EF0A8C26FF0A9C270F0EAEC4DF0B2
:1010D0007ED8250E80EC63F0AAC262F0260E80EC6A
:1010E00063F00A0EDCEC61F0826F9F0E8217020142
:1010F000D339E846E00B0001821382C062F00A0E89
:1011000080EC63F0C80E0001826F0201BA5102E068
:101110000001828982C062F0300E80EC63F0000131
:101120007D6B0ED0AD0E7D25D96EDA6A020EDA2205
:10113000DF50626F7D51280F80EC63F000017D2B42
:101140000201B55100017D5DEDE30201B55108E0FA
:10115000B50510090001626F270E80EC63F005D021
:101160000001626B270E80EC63F0000162693E0EA5
:1011700080EC63F041D880EF63F06D6F6E6B6F6B46
:10118000706B12007EC069F07FC06AF080C06BF0A7
:1011900081C06CF012009EC26DF09FC26EF0A0C2C2
:1011A0006FF0A1C270F0120000017E6B7F6B806B4C
:1011B000816B1200F00B00017C117B11626F120039
:1011C0000001626F360C650E0001626F3A0C02017D
:1011D000AB510001626F12000001626F3A0C82C0D5
:1011E00062F0310C0001626F3B0C0001626B0D0C70
:1011F0006E6F6F6B706B1200000162693F0C000133
:101200006269120C806B816B796B7A6B010E000145
:10121000616F120E606F626999EC59F0010E000166
:10122000616F130E606F626999EC59F0C2C17CF175
:10123000C3C17DF101017E6B7F6B7D517927000E6B
:101240007A230001616B606B7DC162F099EC59F00B
:101250000101804B812B7C517927A4D97CC162F09C
:1012600099EC59F00101804B812B7C0E0001606FDD
:10127000010E616F7B0E626F010E636F6AEC61F0AD
:101280000101826B6DD999EC59F09ED9030E8265EC
:10129000F9D77B517DD999EC59F00101804B812B15
:1012A000C6EC67F086D974D999EC59F00101804BEE
:1012B000812BDBEC65F060C07CF161C07DF162C028
:1012C0007EF163C07FF1826B4BD999EC59F07CD9E8
:1012D000030E8265F9D7F6EC65F060C07CF161C061
:1012E0007DF162C07EF163C07FF1826B39D999ECE8
:1012F00059F06AD9030E8265F9D7660E00016B6F4B
:10130000010E6C6F7FEC64F00101826B11D999ECD6
:1013100059F05AD9070E8265F9D7660E00016B6F36
:10132000010E6C6F44EC63F00101826B01D999EC02
:1013300059F04AD9070E8265F9D7660E00016B6F26
:10134000010E6C6F00EC65F00101826BF1D899EC35
:1013500059F03AD90F0E8265F9D7660E00016B6F0E
:10136000010E6C6FEAEC64F00101826BE1D899EC3C
:1013700059F02AD90F0E8265F9D7660E00016B6FFE
:10138000010E6C6FF5EC64F00101826BD1D899EC21
:1013900059F01AD90F0E8265F9D7FFEC65F060C0DD
:1013A0007CF161C07DF162C07EF163C07FF1826B30
:1013B000D7D899EC59F008D9030E8265F9D7660E93
:1013C00000016B6F010E6C6FF9EC62F00101826B32
:1013D000AFD899EC59F0F8D80F0E8265F9D7660EA0
:1013E00000016B6F010E6C6FEAEC62F00101826B21
:1013F0009FD899EC59F0E8D80F0E8265F9D7EDEC3B
:1014000065F060C07CF161C07DF162C07EF163C0B7
:101410007FF1826BA5D899EC59F0D6D8030E82657E
:10142000F9D7E4EC65F060C07CF161C07DF162C089
:101430007EF163C07FF1826B93D899EC59F0C4D8E8
:10144000030E8265F9D76AEC67F0B3D8A1D899EC9E
:1014500059F00101804B812B786B470E786501D0E4
:1014600016D0785126EC63F0A4D892D899EC59F0B4
:101470000101804B812B785117EC63F09AD888D802
:1014800099EC59F00101804B812B782BE6D7C3EC06
:1014900067F08FD87DD899EC59F00101804B812BF2
:1014A00072EC67F086D874D899EC59F00101804B42
:1014B000812BAEEC67F07DD86BD899EC59F0010127
:1014C000804B812B05EC67F060C076F161C077F14D
:1014D000826B7FD8792766D87CD80001626F99EC3F
:1014E00059F072D8010E8265F4D7792904E17A297E
:1014F00002E1796B7A6B80C160F081C161F079C1E2
:1015000062F099EC59F00101804B812B80C160F0B1
:1015100081C161F07AC162F099EC59F00101804B10
:10152000812B000120EE06F0EB51D926EC5145D07D
:10153000660E8225D96EDA6A010EDA22DF5079272B
:10154000000E7A2380C160F081C161F0660E8225B1
:10155000D96EDA6A010EDA22DF500001626F1200E2
:101560007C0E8225D96EDA6A010EDA22DF507927E5
:10157000000E7A2380C160F081C161F07C0E82256B
:10158000D96EDA6A010EDA22DF500001626F1200B2
:101590007927000E7A2380C160F081C161F07BC1A0
:1015A00062F0000C000E7A2380C160F081C161F00E
:1015B000000C01017B6F7B511200DA2200C2DEFFBA
:1015C00001C2DEFFDD6A12000101804B812B822BFC
:1015D0001200760E8225D96EDA6A010EDA22DF5009
:1015E0001200070E816F826B010E786F796F756B39
:1015F000766B6C07D8A06D0790D1050E6C25706FC7
:10160000000E6D21716F6E51705D6F5171591BE24B
:1016100020EE05F06C51D9266D51DA22030EDE184A
:1016200012E1782B040E6C25836F000E6D21846F00
:101630008FD925EC64F0000901E0796B050E6C2769
:10164000000E6D236AD192D9DF500F0B776F6CC0FB
:10165000D9FF6DC0DAFFDF50706F70390F0B7C6FF0
:1016600085D98BD97DC07FF07EC080F0020E6C27BB
:10167000000E6D236CC083F06DC084F06C4B6D2B3D
:10168000030102ADFED00001795101E188D060D99B
:1016900025EC64F000095AE082D05AD9706F703995
:1016A000F00B746F7451100F726F74C085F023D0FB
:1016B000855146D954D90BE27FB103D07F518011B7
:1016C00006E185513DD9DF500F0B0001816F855137
:1016D00037D958D982610BD07FB103D07F518011A7
:1016E00006E185512DD9DF380F0B0001826FD890AC
:1016F00080337F33852B7251855D36E2D9D7040E56
:10170000826F32D0040E816F826F7D517E112CE189
:10171000796B2AD0856B3F0E856501D013D085513A
:101720000FD91DD903E285510BD934D9855108D978
:10173000DF380F0B0001826103D0855101D926D912
:10174000852BE9D77D517E11DAE10ED001D9A5E0D4
:10175000010AA3E0030AA1E0010A9FE0070ACFE023
:10176000020AD8E0010ACEE0856B460E856501D0FD
:1017700016D08551D5EC44F0DE040FE18551E0D858
:10178000EED803E28551DCD805D98551D9D8FAD8ED
:10179000826103D08551D4D8F9D8852BE6D77C5106
:1017A00089EC65F0000908E181517C5D05E37C511D
:1017B000825D02E3010E766F0B0E776109D0010E98
:1017C000756F050E776102D0736F02D077C073F02A
:1017D000755140E076513EE079513CE078C060F0D0
:1017E000616B6369FB0E626FA3EC61F060516C2565
:1017F0007A6F61516D217B6F1BD07A4B7B2B7A4BBB
:101800007B2B7AC0D9FF7BC0DAFFB7D8020E7A27CC
:10181000000E7B237AC083F07BC084F07A4B7B2B55
:101820007DC067F07EC068F093D8696FC9EC47F05F
:1018300000016C517A5D6D517B59DFE30301038731
:10184000000173517AEC67F00301038900017C51B8
:1018500086EC67F083C0D9FF84C0DAFF0001DF5057
:101860000F0B03E10301C86B0AD083C0D9FF84C00A
:10187000DAFFDF500F0B706F70050301C86F038B29
:1018800047D00001796B44D00301985151D8000131
:1018900079B103D00301DF9002D00301DF809851BA
:1018A00047D8000176B103D00301DF9202D00301D3
:1018B000DF8298513DD8000175B103D00301DF9458
:1018C00002D00301DF84100E986122D0000178510C
:1018D0001FE00301982B98512BD8DF90985128D8FE
:1018E000DF92985125D8DF94985122D8DF969851ED
:1018F0001FD8DF9898511CD8DF9A985119D8DF9CCF
:10190000985116D8DF9E985126EC18F0030EDF6E22
:1019100000017807782907E0B7D76E516C5D6F51E9
:101920006D5901E26AD66CC06CF06DC06DF01200AA
:10193000020D9B0EF324D96E030EF420DA6E120012
:10194000020D210EF324D96E050EF420DA6E12007A
:1019500083C0D9FF84C0DAFFDF38070B1200DF50E5
:101960000F0B0001706F8151705D12006C4B6D2B7D
:101970006CC0D9FF6DC0DAFF1200DECF7DF0DDCF85
:101980007EF01200DF380F0B00011200DF380F0B62
:10199000826F1200DF500F0B816F120000018D6B00
:1019A0008E6B946B956B616B606B66EC64F0000101
:1019B000ACD98FC086F0876B8651876F866BADD9A7
:1019C00066EC64F098D98627000E872386519AEC3E
:1019D00066F086C08BF087C08CF00001966B965144
:1019E000900F82D966EC64F079D9900F6FD9030E0D
:1019F0009665F5D792D966EC64F0000186D990C05F
:101A00006EF091C06FF092C070F093C071F08FC013
:101A100072F04EEC58F081D966EC64F06CD95AEC57
:101A200059F00001966B9651900F5ED966EC64F008
:101A300055D9900F4BD9030E9665F5D790C060F03D
:101A400091C061F092C062F093C063F01AEC66F04E
:101A5000966B9651900F48D966EC64F03FD9900F81
:101A600035D9030E9665F5D790C060F091C061F04E
:101A700092C062F093C063F02CEC66F0966B9651C6
:101A8000760F32D966EC64F029D9760F1FD9070E8C
:101A90009665F5D78BA105D0760E6B6F6C6BE1EC7C
:101AA00060F00001966B9651760F1ED966EC64F0DB
:101AB00015D9760F0BD9070E9665F5D78BA305D0F0
:101AC000760E6B6F6C6B1DEC61F00001966B96519E
:101AD000760F0AD966EC64F001D9760FF7D80F0EAD
:101AE0009665F5D78BA505D0760E6B6F6C6B09EC00
:101AF00061F00001966B9651760FF6D866EC64F0B3
:101B0000EDD8760FE3D80F0E9665F5D78BA905D0E3
:101B1000760E6B6F6C6BF1EC5EF00001966B96517C
:101B2000760FE2D866EC64F0D9D8760FCFD80F0ED6
:101B30009665F5D78BAB05D0760E6B6F6C6BF5ECBD
:101B400060F0F0D89651900FCFD866EC64F0C6D80C
:101B5000900FBCD8030E9665F5D78BA70AD090C01E
:101B600060F091C061F092C062F093C063F0AFEC9E
:101B700064F00001966B9651760FB6D866EC64F06F
:101B8000ADD8760FA3D80F0E9665F5D78BAF05D0DD
:101B9000760E6B6F6C6B71EC63F00001966B965177
:101BA000760FA2D866EC64F099D8760F8FD80F0E16
:101BB0009665F5D78CA105D0760E6B6F6C6B62ECD9
:101BC00063F0B0D89651900F8FD866EC64F086D849
:101BD000900F7CD8030E9665F5D78BAD0AD090C0D8
:101BE00060F091C061F092C062F093C063F021ECAC
:101BF00065F00001966B9651900F76D866EC64F014
:101C00006DD8900F63D8030E9665F5D790C060F03D
:101C100091C061F092C062F093C063F023EC66F073
:101C20007CD866EC64F067D8FCEC5FF000018A6B4E
:101C3000470E8A6501D017D070D866EC64F05BD887
:101C4000010ED8B4000E646F8A51EFEC61F065D8D4
:101C500066EC64F0000159D88FC067F08A517CECC3
:101C600060F08A2BE5D759D866EC64F044D808ECCC
:101C70005FF053D866EC64F03ED859EC64F04DD870
:101C800066EC64F038D882EC67F00001886B896BF1
:101C9000966B9651880F28D866EC64F01FD8880F91
:101CA00015D8010E9665F5D788C060F089C061F03F
:101CB0003FEC64F000018D2904E18E2902E18D6B77
:101CC0008E6B8DC074F08EC075F01200D96EDA6A1A
:101CD000DF508D27000E8E23962B000CDF6E000147
:101CE000944B952B96511200D96EDA6A94C060F02D
:101CF00095C061F0120000018F6F944B952B8F51AE
:101D00008D27000E8E238F5112008F6F944B952BD1
:101D10008F518D27000E8E23000C94C060F095C06B
:101D200061F012000001906B916B926B936B966B5C
:101D30001200EBC0D9FFECC0DAFFDECFF0F0DDCF50
:101D4000F1F0000120EE02F0AFD9DECFF2F0DDCFEE
:101D5000F3F0010EF46FF569F0C09CF0F1C09DF056
:101D6000D6EC36F0F56FF5BF8BD1F66B070EF66546
:101D700001D086D1F651020D480EF324D96E020E21
:101D8000F420DA6EDECF60F0DDCF61F0F2C062F0F9
:101D9000F3C063F01FEC45F06051611101E06DD1BB
:101DA000CB0EF5257DD949EC22F0F5CFEDF0F6C04C
:101DB000EEF0010EEF6FEE2B02D0D890EF37EE2F42
:101DC000FCD70001EF51ED1501E157D1F46B26D19D
:101DD0000F013891929051D10F01389192804DD1DD
:101DE00092800F01388149D1F651F2E0010AF4E006
:101DF000030AF6E012D00F01389392923ED10F0100
:101E0000389392823AD192820F01388336D1F651BB
:101E1000F2E0010AF4E0030AF6E0010A2ED10F0114
:101E2000389592942AD10F013895928426D19284C4
:101E30000F01388522D1F651F2E0010AF4E0030ADD
:101E4000F6E0EBD70F013897929617D10F0138972C
:101E5000928613D192860F0138870FD1F651F2E0A6
:101E6000010AF4E0030AF6E0D8D7929806D19288E6
:101E700004D1F651FAE0010AFAE0020AFED00F019D
:101E8000389B929AFAD00F01389B928AF6D0928AA8
:101E90000F01388BF2D0F651F2E0010AF4E0030AA8
:101EA000F6E0BBD70F013C919690E7D00F013C9133
:101EB0009680E3D096800F013C81DFD0F651F2E0AE
:101EC000010AF4E0030AF6E0A8D70F013C939692CA
:101ED000D4D00F013C939682D0D096820F013C83E0
:101EE000CCD0F651F2E0010AF4E0030AF6E095D70F
:101EF0000F013B959594C1D00F013B959584BDD0C2
:101F000095840F013B85B9D0F651F2E0010AF4E067
:101F1000030AF6E082D70F013C959694AED00F01EC
:101F20003C959684AAD096840F013C85A6D0F651A4
:101F3000F2E0010AF4E0030AF6E06FD70F013A9BE2
:101F4000949A9BD00F013A9B948A97D0948A0F0160
:101F50003A8B93D0F651F2E0010AF4E0030AF6E07E
:101F60005CD70F013B9B959A88D00F013B9B958ACC
:101F700084D0958A0F013B8B80D0F651F2E0010AA4
:101F8000F4E0030AF6E049D70F013B9F959E75D018
:101F90000F013B9F958E71D0958E0F013B8F6DD0B9
:101FA000F651F2E0010AF4E0030AF6E036D70F0139
:101FB0003B9D959C62D00F013B9D958C5ED0958C8E
:101FC0000F013B8D5AD0F651F2E0010AF4E0030A0A
:101FD000F6E023D7929E51D0928E4FD0F651FAE080
:101FE000010AFAE04AD7929C48D0928C46D0F6512A
:101FF000FAE0010AFAE041D7939E3FD0938E3DD09C
:10200000F651FAE0010AFAE038D7939C36D0938C67
:1020100034D0F651FAE0010AFAE02FD7F55101E188
:10202000E3D6010A01E1F3D6030A01E104D7010A6C
:1020300001E114D7070A01E11CD7010A01E12BD7FE
:10204000030A01E13BD7010A01E14BD70F0A01E185
:102050005BD7010A01E16BD7030A01E17BD7010AD3
:102060008CE0070A9DE0010AAEE0030AB7E0010A2E
:10207000BEE01F0AC5E0010ACCE00001F62B76D6CF
:10208000F45175EC21F0DECFEDF0DDCFEEF020EE77
:1020900006F00AD8EDC0DEFFEEC0DEFFDD6A1200FA
:1020A000F66EF76AF60E1200EB51D926EC51DA22E1
:1020B0001200DD6F100E0001E16FDF6BDE0E606F4E
:1020C000616B636B626B656B010E646F67EC60F054
:1020D00057D967EC60F0F0EC3DF0B7EC56F0100E1D
:1020E000646F67EC60F0DD0507E1DE511F0B8009CE
:1020F000DE6F0301008104D0DE511F0B4009DE6F4B
:10210000FC0E0001DE17E30EDE170A0E5DD9DEC0FD
:10211000DFFFE12B2ED9F4EC3DF0E4EC3DF057EC81
:1021200051F0040EE127E06B030102AD30D0000155
:10213000E08F0301D151DD5D29E20001E08D030153
:102140000089C24BC32B9451C219C31102E1E06B49
:102150001AD094510001DB6FDC6B0301C251000106
:10216000DB5D0301C3510001DC590EE20301E02BEA
:102170009551E05D0CE3E06B00EC41F0000907E1F4
:102180000301C26BC36B0001E09D030100990301D1
:1021900000A304D00001E08B030100930001E0994B
:1021A00003019951981907E10001D951DA1103E1AE
:1021B000F00EE01723D003019951981916E1F00EA3
:1021C0000001E017495002E005D914D9485007E052
:1021D000E0510F0BDB6FDB2BE051DB190BD9010159
:1021E000CB510CE00001F6D808D00001D951DA112A
:1021F00005E024EC40F0DB6FE019FCD80A0E00018A
:10220000E3D8E0C0DFFFE12BB4D8060E626F030E07
:10221000636F656B020E646F57EC51F0020EE1279D
:102220000301995198190FE00001D951DA110BE01F
:102230000A0E606F0A0E616FE10E626F010E636F2E
:1022400032EC17F01AD003019951981916E1495050
:1022500009E00A0E0001606F0A0E616FE10E626F05
:1022600073EC5DF0485009E00A0E0001606F0A0E41
:10227000616FE10E626FCDEC60F003019951981926
:1022800004E10001D951DA1106E00A0E00019CD8E0
:10229000D6C0DFFFE12BD951DA1118E06AD8D7C0D8
:1022A00062F0D8C063F0D9C064F0DAC065F057ECD2
:1022B00051F0D7C0A0F0D8C0A1F0D9C0A2F06BD81F
:1022C00095D873D83BEC29F0D9511AD00301995114
:1022D000981917E0190E0001606F0B0E616FDF0E89
:1022E000626F636B32EC17F0190EA06F0B0EA16FCB
:1022F000DFC0A2F050D876D858D83BEC29F0DF5197
:10230000E12706C36BF007C36CF008C36DF009C387
:102310006EF00001E151F00F6F6F490E706F000E0B
:10232000716BB2EC3DF00A0E606F0A0EECEC05F03A
:10233000100E646F57EC51F041D8CA6F020ECB6F8C
:102340000A0ECC6F0A0ECD6FE1C0CEF0FEEC11F09C
:1023500010D8EFEC52F0E4EC3DF057EC51F0040EE5
:10236000E127F00EE1250301C66FC76BFF0EC723FF
:10237000FF0C0A0EE125606F616B0A0E61231200EB
:102380000A0E606F0A0E616F636B626B010E656F00
:102390000F0E646F0F0CA36B06C3A4F007C3A5F068
:1023A00008C3A6F009C3A7F01200A96FE1C0AAF004
:1023B0000A0EAB6F0A0EAC6FAD6B1200220EC86F27
:1023C000030EC96FD60E1200E125D96EDA6A0A0E25
:1023D000DA221200E0510F0BDB6F020EDB27E05117
:1023E000DB191200220EA86F030E1200320EA86F26
:1023F000030E1200F00BDB19E06F12000101656B98
:10240000646B626B606B616BC8C0A0F0C9C0A1F067
:10241000100E0001A26F010EA36F000EA46F010E3B
:10242000A56FEBEC2EF0CE51CF6FD06B0F0ECF27F8
:10243000000ED023040ED16FD035D033CF33D12F3F
:10244000FBD7CF510101636F635104E1010E636F4C
:10245000626B0AD0CEC0CFF00F0E0001CF17010E75
:10246000D8A4000E0101626F62052EE1646B635116
:10247000100DF350F00F656F18D0200E0101642588
:1024800020D9100E6425E96EEA6A010EFBD801011D
:1024900065510001CC25E96E000ECD21EA6EEF50AA
:1024A000CF19DF6E0101642B652B6351C7D8010181
:1024B000655103D9CF51D15DD251800AD36FD0512C
:1024C000800AD35940E2D9D70001CE51CC25CF6F35
:1024D000000ECD21D06FCE510F0BCF5D0101606F8B
:1024E0000001D051D8A0D0050101616F656BEED815
:1024F00065610CD065516025D96E000E6121DA6EE0
:10250000300EC5D8EA22DFCFEFFF09D0DFD865193A
:1025100004E1B1D8800EDF6E02D0ADD8DF6A652B42
:102520000F0E6565E4D7656B200E6525CAD8000ED1
:102530006525E96EEA6A010EA5D8300E0101A7D81B
:102540008AD86565F1D7500E0001606F010EB7ECB7
:1025500056F0100E646F67EC60F00101656B34D0CB
:102560000101646B400E6425A3D8655167D8CCC0C7
:10257000D1F0CDC0D2F090D864510001D125E96EE0
:10258000000ED221EA6EEF50D36F500E0101642588
:102590006ED8EA22EF500001D319DF6E0101642BDF
:1025A0000F0E6465DFD7500E0001606F010E616F82
:1025B0005AD83FD857EC51F0500E8C6F010E72D89C
:1025C000B6EC61F00101652B0001CF69D069010112
:1025D000635173D861D865510001D36FD46BD15169
:1025E000D35DD451800AD56FD251800AD559B8E352
:1025F0000101656B400E65255BD8200E6525E96EEF
:10260000EA6A010E3FD8500E0101652530D823D863
:102610006565F0D7400E00018C6F010E43D8B6EC13
:1026200061F0CAC060F0CBC061F01DD802D857EF8E
:1026300051F0636F656B100E646F100C0001CF6F6B
:10264000D06BCF3BD03BF00ED017CF510F0BD01338
:10265000F00ECF17F00CEA22EF500001CF19DF6E19
:102660000101652B0F0C400E626F010E1200E96E26
:10267000EA6A010E1200300E6525D96EDA6A010E83
:10268000DA221200EA22EF500001CF6F1200652516
:10269000E96EEA6A010E1200CF51D127D051D22340
:1026A000010112008D6FC8C08EF0C9C08FF01200FA
:1026B000D96EDA6A010EDA2212000001D16FD26BF4
:1026C0001200D96EDA6A010EDA2212000001CE5130
:1026D0000F0B0101120000017B6F796B7A6B080E02
:1026E0007B192EE127EEF4F0DE50DE10D8B4120094
:1026F00019D9AF0E7025D96E050E7121DA6EDF5033
:1027000014E1F3C7E8FFFF0FE8CFF3F700D9DECFFE
:10271000F6F7DDCFF7F7FBD8DE6ADD6A27EEF3F0D8
:10272000DF5007D9DE6ADD6A05D027EEF6F0DE0657
:10273000000EDD5A27EEF4F0DE06000EDD5A000C26
:1027400027EEF4F0250EDE5C020EDE5844E2200E89
:102750007B1943E127EEF3F0060EDF603CD0E2D8B0
:1027600003D9000EDF6A27EEF4F0DE2ADD2227EE21
:10277000F6F007EEF3F0EF50020DD60EF324E96EFB
:10278000070EF420EA6EDECFEEFFDDCFEDFF7069BD
:10279000716927EEF6F0EFD827EEF4F0DECF74F093
:1027A000DDCF75F07251745F7351755B7051742792
:1027B0007151752327EEF3F0DF50BBD874C0DEFFF4
:1027C00075C0DDFFF3C7E8FF010FE8CFF3F7000E98
:1027D000BCEC56F077D0796975D0A4D8C5D87BC049
:1027E000DFFF27EEF4F0DE2A000EDD2227EEF6F002
:1027F000DE2ADD2283D82BEC58F027EEF4F060516E
:10280000DE5C6151DE582EE3010E7A6F77D82BEC37
:1028100058F060517C6F22D085D8B2D87C51725F5D
:10282000000E9AD8DF50746F69D82BEC58F0E40E84
:10283000756FFF0E766F60517527615176237C515D
:10284000755F000E765B75C0F6FF76C0F7FFF86A1D
:102850000800F550741901E07A6B7C077C5102E0A6
:102860007A51DAE17A512EE05DD848D82BEC58F055
:1028700087D86051725F61516FD8DF6A3FD82BEC07
:1028800058F027EEF6F05DD86051705F6151715BD2
:102890003ED870C0DEFF71C0DDFF27EEF6F051D8E4
:1028A00027EEF4F068D87051725F7151735B27EEB8
:1028B000F3F0DF503ED872C0DEFF73C0DDFF010EC3
:1028C000E8CFF2F77929D8A412009CEC56F064C244
:1028D00060F065C261F0F5EC16F02BEC58F060C0CA
:1028E00077F061C078F064C266F065C267F02ED8F8
:1028F00077C069F078C06AF015EF47F0E40E606FBA
:10290000FF0E616F6011D8A4000E626F120027EEF7
:10291000F3F0DF50020DD60EF324D96E070EF4202B
:10292000DA6E120027EEF4F0DECF70F0DDCF71F03A
:102930001200020DE40EF324D96E070EF420DA6EB5
:102940001200DECF70F0DDCF71F01200665167111A
:10295000D8A4000E686F1200735B70517225D96E97
:1029600071517321DA6E1200B00E7025D96E050E0A
:102970007121DA6E1200DECF72F0DDCF73F012003B
:10298000B00E726F050E736F12008C6B6EC29FF1EA
:102990006FC2A0F19F51A011D8A4000EA16F8F6B40
:1029A00035D08F51090DF35083250001FA6FF45093
:1029B000010184210001FB6F000E0101852100014E
:1029C000FC6FFAC0F6FFFBC0F7FFFCC0F8FF21EE7A
:1029D00090F0080E15D9FEE290C160F091C161F04F
:1029E0000101875199EC14F0DECFFAF0DDCFFBF056
:1029F000B00E0001FA25626F050EFB21636F1FEC1C
:102A000045F06051611105E001018F2B86518F5D0A
:102A1000C8E3010186518F5D01E3ABD09251931160
:102A2000941101E09BD09551961101E1A2D09851EB
:102A30000001FA6FFB6B01018751F3C7FCF0FCC08A
:102A4000FDF00001FE6BFD5F000EFE5BFA51FD190B
:102A500003E1FB51FE19D8A48CD0010187298E6FA8
:102A60008D6B985114E08E2B8E05020DD60EF3243B
:102A7000D96E070EF420DA6EDE50DE1003E1010E8F
:102A80008D6F05D027EEF3F08E51DE5CECE28D51B8
:102A900070E1990E0001606F010EB7EC56F0090E5F
:102AA000646F67EC60F001018DD8FA2B000EFB23F8
:102AB000FB5113E1070EFA5D10E27BD8D80EFA2520
:102AC000D96E070E93D809E074D8E60EFA25D96EB0
:102AD000070E7DD8996F85D89A6F010173D8020EC1
:102AE0008AD813E1070EFA5D10E263D8DA0EFA25F0
:102AF000D96E070E7BD809E05CD8E80EFA25D96EAE
:102B0000070E65D89B6F6DD89C6F01015BD8030ED3
:102B100072D813E1070EFA5D10E24BD8DC0EFA25ED
:102B2000D96E070E63D809E044D8EA0EFA25D96EAB
:102B3000070E4DD89D6F55D89E6F990E0001EB6F13
:102B4000010EEC6F01D815D00500FA6E0101955108
:102B5000FD6E9651FE6EFF6AFA501200010E8C6FE8
:102B600088C1D9FF89C1DAFF8FC1DFFF9F6BA06BDE
:102B7000A16B01019F51A011A11118E09FC160F04C
:102B8000A0C161F0A1C162F02BEC58F060C08AF1E5
:102B900061C08BF19FC166F0A0C167F0A1C168F070
:102BA0008AC169F08BC16AF015EC47F001018C51C4
:102BB0001200010187510001FA6FFB6BD890FA37C0
:102BC000FB37120087510001FA6FFB6B1200FB21EB
:102BD000DA6EDECFFCF0DDCFFDF0B00EFC2501019A
:102BE0001200050E0001FD2101011200FB21DA6E29
:102BF000DE50DE101200FA27000EFB23FB511200FC
:102C00000900F5CFDEFFE8061200D7D0010E9B6564
:102C100054D023D922C262F023C263F038EC5EF0B4
:102C2000DBD82BEC58F0F7D8856F070EAA21866FFA
:102C300099C0D9FF9AC0DAFFDF50876F0BEC3AF0EA
:102C400019EC5CF0C9D82BEC58F0E5D8F3D8A94BB7
:102C5000AA2B9D699E699B519F6FA06B9D519F27D9
:102C60009E51A023120EA16F020EA26FA951A15F67
:102C7000AA51A25BD890A231A46FA131A36F9F513A
:102C8000A35DA051A45903E2B6D8DBD806D0FF0E4D
:102C90009B25A56FA66BFF0EA62399298D6F000EAD
:102CA0009A218E6FBFD80FEC3DF096D82BEC58F0E0
:102CB000ADD8CDD8D8A4200E0DD01EC260F01FC252
:102CC00061F093D82BEC58F0A1D81EC266F01FC259
:102CD00067F06ED0686FA7C069F0A8C06AF015EF02
:102CE00047F09B5125E0B9D820C262F021C263F0C1
:102CF00038EC5EF071D82BEC58F08DD89BD8A94BEE
:102D0000AA2B79D8A06F9D319F6F9B519F5D000EBC
:102D1000A05903E270D895D803D09BC0A5F0A66B4C
:102D200099C08DF09AC08EF07DD80FEC3DF0BDD7E4
:102D30001CC260F01DC261F058D82BEC58F066D868
:102D40001CC266F01DC267F033D024C260F025C2F9
:102D500061F04BD82BEC58F059D824C266F025C24C
:102D600067F026D026C260F027C261F03ED82BEC77
:102D700058F04CD826C266F027C267F019D028C296
:102D800060F029C261F031D82BEC58F03FD828C24E
:102D900066F029C267F00CD02AC260F02BC261F045
:102DA00024D82BEC58F032D82AC266F02BC267F038
:102DB00066516711D8A4000E8DD700019C51D2E056
:102DC000010A01E123D7030AC0E0010A8AE0070AE9
:102DD000D6E0010AE1E01200F80E606F070E616FA5
:102DE0006011D8A4200E626F120060516111D8A446
:102DF000000E626F1200120E9D6F020E9E6FA9519F
:102E00009D5FAA519E5BD8909E31120060C0A7F0D2
:102E100061C0A8F0120060C0A9F061C0AAF0F80E6D
:102E2000A9251200F80EA9258F6F070EAA21906F11
:102E3000A5511200D96E070EAA21DA6E200EDF6EA0
:102E4000200C9F6F9D31A56F9FC0A6F01200F80E59
:102E5000666F070E676F66111200F80E606F070E3F
:102E6000616F120099C36DF06251D96EDA6ADF505A
:102E70006E6F0001635114E06D51E8D8DE2810E058
:102E8000F4D8E4D8F7D855EC40F002D969BFB9D0EE
:102E9000695105E1100E685D01E3CFD0B2D0CDD00D
:102EA000635101E0AED06D51D1D8DE2801E1A9D047
:102EB000DCD8CCD8DFD855EC40F0EAD8F90E0301C5
:102EC0007AEC4BF049EC22F0F55000016A6F6B6B25
:102ED00068516A5D6B51800A6C6F6951800A6C5948
:102EE00001E2ABD08ED0BAD8030EDF6E6E2BB6D80F
:102EF000DF6A6D5198EC0CF0DFA004D00001AED871
:102F0000000EDB8000016D5198EC0CF0DFA203D0C5
:102F1000A5D8000EDB8200016D5198EC0CF0DFA407
:102F200003D09CD8000EDB8400016E2B7CD096D899
:102F3000050EDF6E6E2B92D8DF6A6D5198EC0CF0A7
:102F4000DFA604D000018AD8000EDB8000016D519D
:102F500098EC0CF0DFA803D081D8000EDB820001D2
:102F60006D5198EC0CF0DFAA03D078D8000EDB840A
:102F7000000174D8DF500101CA6FD6D76FD8060E92
:102F8000DF6E6E2B6BD8D2C3DFFF6E2BCCEC67F0FD
:102F9000800AA00F05E3CCEC67F0800A600F04E321
:102FA00000015CD8200E05D0000158D8CCEC67F0A9
:102FB0003F0BDF6EB9D752D8070EDF6E6E2B4ED89F
:102FC000DF6A6D5198EC0CF0DFAE04D0000146D8FA
:102FD000000EDB8000016D5198EC0CF0DFACA4D743
:102FE0003DD8000EDB82A0D70301CF69D06B000172
:102FF0006D512CD86E516025E96E000E612156D8B6
:1030000093D76D5123D8DF50020AEEE0010A01E1A7
:103010006AD7070AECE0010A8AE0030AAFE0010A76
:10302000CAE00F0AE4E06D2B100E6D1901E16D6B23
:103030006D510301981901E01CD76DC099F300018F
:103040006251D96EDA6A6EC0DFFF1200020D9A0E6D
:10305000F324D96E030EF420DA6E12006E5160254F
:10306000D96E000E6121DA6E1200FE0E646F656982
:103070006D511200DF50666F676B645166276551B2
:103080006723200E6625F66EF70E6721F76E120095
:103090006EC068F0696B6827000E69236251D96EB3
:1030A000DA6ADF50685F000E695B000CEA6EDFCF02
:1030B000EFFF12008B6B68518B25D96EDA6A8B514A
:1030C000710FE96EEA6ADFCFEFFF8B2B0F0E8B6576
:1030D000F2D70A0E446E010E436E8B6BC4D8BCD877
:1030E00000D98B65FBD78B6BB7D8DF50696F6A6BE4
:1030F000CB0E6925F66EF50E6A21F76EF86A000EA2
:10310000F822AAD80800F5CFDFFF8B2B0F0E8B65B6
:10311000EBD766C060F067C061F04AEC35F044045C
:1031200001E184D08B6B91D86929D96EBDD86B6FC2
:1031300093D8DF506B19896F88D8CFD8B5D8A4D869
:103140008A6F8919876F81D86929D96EADD89CD8C3
:10315000886F7F0E896508D01B0E89C069F0AFD8D3
:10316000816F6A51826F05D0D8908935816F826BEB
:10317000823781C089F07F0E886508D01B0E88C019
:1031800069F09DD8836F6A51846F05D0D8908835D7
:10319000836F846B843783C088F07F0E8A6508D084
:1031A0001B0E8AC069F08BD8856F6A51866F05D077
:1031B000D8908A35856F866B863785C08AF04CD863
:1031C00084D887198919DF6E40D86929D96E52D8F9
:1031D0006B296FD887198819DF6E37D8020E6925D9
:1031E000D96E48D8020E6B2564D887198A19DF6E0C
:1031F0002CD873D83FD8020E6B255BD86D6F8B51DE
:1032000066256E6F000E67216F6F6E29E96E000EE6
:103210006F21EA6EEF50706F58D870196D198719C9
:10322000DF6E040E8B270F0E8B657DD7710E606FDE
:1032300087EC27F08B6B17D80FD853D88B65FBD74B
:103240004406445001E04FD712008B516625696F48
:10325000000E67216A6F12008B516625D96E000E31
:103260006721DA6E12008B51710FD96EDA6ADF5066
:10327000696F1200000E6A21DA6E8B5166256B6F42
:10328000000E67216C6F12006B6F8B5166256C6F9F
:10329000000E67216D6F020E6C25D96E000E6D2138
:1032A000DA6EDF506B191200000E6A21DA6EDF5001
:1032B0001200E96E000E6C21EA6EEF5012006A6B8C
:1032C000D89069376A37691912008B516625E96E03
:1032D000000E6721EA6EEF501200030E6925D96EC9
:1032E00012006951DF1A8B2B0F0C060EE126000E1F
:1032F000E2229AEC46F04EC0B6F14FC0B7F150C092
:10330000B8F151C0B9F14A047AE14A6ACD38030BE9
:1033100002E1E0D802D0CCD8D6D8CD38030B02E1F8
:10332000E8D803D0C5D8B0EC25F0CD38030B03E1C5
:10333000D3EC46F003D0BCD8CCEC46F0FE0EE3CF85
:1033400059F052685368546A556A592A05D0D89082
:103350005236533654365536592EF9D70101BA51E3
:103360005214566EBB515314576EBC515414586EC0
:10337000BD515514596EFC0EE3CF55F04E684F68A1
:10338000506A516A552A01D098D8552EFDD734502D
:103390004E14526E35504F14536E36505014546EB6
:1033A00037505114556E4E6A4F6A010E506E516A75
:1033B000FA0EE350E82A01D080D8E82EFDD752500B
:1033C0004E5E53504F5A5450505A5550515A5650C1
:1033D0004E5C526E57504F58536E58505058546E62
:1033E0005950515844D8B6C1BAF1B7C1BBF1B8C1B0
:1033F000BCF1B9C1BDF1010177D871D82DD034C06D
:1034000056F035C057F036C058F037C059F0561E48
:10341000571E581E591E562A000E5722582259224E
:103420000101BA51565C526EBB515758536EBC5194
:103430005858546EBD5159581AD89A510101BA279B
:1034400002019B510101BB2302019C510101BC23DC
:1034500002019D510101BD239AC24EF09BC24FF063
:103460009CC250F09DC251F0FA0E58EF26F0556EF6
:10347000B6515224566EB7515320576EB85154204E
:10348000586EB9515520596EBE51562402019A6F9B
:103490000101BF51572002019B6F0101C05158200B
:1034A00002019C6F0101C151592002019D6F120060
:1034B000CD38030B4F6E506A1200D8904E364F36FF
:1034C000503651361200FE0E4FC0E3FFFF0E50C0C3
:1034D000E3FFFF0CFE0EE36AFF0EE36A1200346A9C
:1034E000356A366A376A1200BE6BBF6BC06BC16B40
:1034F0001200FC0EE36AFD0EE36A12009FD0000189
:103500007D697E697F698069A6D000A521D0D451EC
:10351000A1EC5CF0635102E1CFD80DE30301D4517B
:10352000A1EC5CF00D0E01D0D4D8E82EFDD7B0D8B8
:1035300006EC56F06ED00301D451A1EC5CF0A8D893
:1035400006EC56F00D0E01D0BED8E82EFDD761D0A6
:1035500002A981D0D651A1EC5CF0635102E1ACD854
:103560000DE30301D651A1EC5CF00D0E01D0B1D8F2
:10357000E82EFDD78DD806EC56F04BD00301D6517E
:10358000A1EC5CF085D806EC56F00D0E01D09BD86E
:10359000E82EFDD73ED000A504D0D551A1EC5CF0BB
:1035A00005D002A904D0D751A1EC5CF098D8000155
:1035B000805102E19DD81DE37DC079F07EC07AF094
:1035C0007FC07BF080C07CF00D0E05D0D8907C339E
:1035D0007B337A337933E82EF9D779C069F07AC032
:1035E0006AF07BC06BF07CC06CF060D806EC56F0E3
:1035F00010D07DC069F07EC06AF07FC06BF080C0E3
:103600006CF054D806EC56F00D0E01D05CD8E82EC4
:10361000FDD769C07DF06AC07EF06BC07FF06CC0E2
:1036200080F019D0DA51A1EC5CF059D88051C4E196
:103630005FD8C2E2DED7000162D80DD0030102518B
:103640000F0B01E15CD7020A01E15FD7060AA3E094
:10365000020AE8E0F0D7000180517F117E1103E1FA
:10366000C80E7D5D09E3CE0E7D27FF0E7E237F23EE
:1036700080230301038103D042D8030103917DC05D
:1036800075F07EC076F07FC077F080C078F01200D1
:1036900060C069F061C06AF062C06BF063C06CF03A
:1036A0007D0E6D6F6E6B6F6B706B7D0C7D0E6D6F35
:1036B0006E6B6F6B706B7D0C1F0E605DAC0E615995
:1036C000DF0E62591200D8906C336B336A33693362
:1036D0001200D8906333623361336033120060C0EC
:1036E0007DF061C07EF062C07FF063C080F01200A8
:1036F0001F0E7D5DAC0E7E59DF0E7F5912007D6B73
:103700007E6B7F6B806B12000201C1A506D0800E1C
:103710000001896F030E886F030CC1C28AF0030E8B
:1037200000018A1705E0800E896F040E886F040C73
:103730008A868851891107E1000E7A6F040E796F2D
:10374000DDEC06F006D088C079F089C07AF0DDECB7
:1037500006F00201B6050DE1010E0001626F220EB6
:1037600080EC63F0C2D880EC63F0BCD880EC63F0EE
:1037700010D0D4C262F0120E80EC63F0D5C262F0B9
:10378000130E80EC63F0B1D880EC63F0ABD880EC22
:1037900063F00201C183E70EC1170001885189114E
:1037A00006E1FBEC5AF0050E4CEC33F02CD0020194
:1037B000B60509E1010E0001656F000E666F060E89
:1037C0004CEC33F020D0000E89D84CEC33F00001E3
:1037D00088518A6F89518B6F8C6B8D6B0C0ED890D2
:1037E00078D8E82EFCD760D801EC23F004EC48F040
:1037F00060C06DF048D80201C65130EC57F00201AC
:10380000C651DFEC45F059D83AE0CB5102E15BD824
:103810000BE340D858EC3AF004EC48F00C0EFFEC07
:103820002CF0E82EFCD713D0C8C28AF0C9C28BF0A6
:10383000CAC28CF0CBC28DF00C0ED890000149D8D2
:10384000E82EFBD731D801EC23F004EC48F060C03F
:103850008EF061C08FF062C090F063C091F08EC0B6
:103860006DF08FC06EF090C06FF091C070F00201EB
:10387000C75130EC57F00201C751DFEC45F00001B1
:10388000886B896B120061C06EF062C06FF063C01C
:1038900070F01200C8C260F0C9C261F0CAC262F022
:1038A000CBC263F000017D0C8AC060F08BC061F078
:1038B0008CC062F08DC063F012000201C851C911C2
:1038C000CA11CB111200C829FF0EC9590F0ECA59CF
:1038D00012008A378B378C378D3712000001656FE5
:1038E000666F050C0001626B410C0001626B400CBD
:1038F0009E96C6AECAD0C69E426A0101D0EC5CF06C
:10390000DECF04F0DDCF05F004C0D9FF05C0DAFF3B
:10391000010EDF6EC66BC76B12002DB212002BC0FA
:10392000C6F12CC0C7F12BC0D9FF2CC0DAFFDF5085
:10393000416E20EE01F02B50D9262C50DA22DECF3A
:10394000C8F1DDCFC9F1050E2B26000E2C22D10EB9
:103950002B1807E1010E2C1804E1CC0E2B6E010E82
:103960002C6E2D9029502B1804E12A502C1801E1BF
:103970002D82C580020E426E020CC5AC04D014D05C
:10398000040EBCEF5CF0D8904C30056E4B30046EEA
:103990000450C96E4BA003D00B0E426E0B0C030EED
:1039A000426E030CC5AC02D02F2AEAD7C5824C5018
:1039B000060B046E056AF00E04104B6E05504C6E3B
:1039C0004B80010E3F6ED6D73F0415E0C8C1D9FF2A
:1039D000C9C1DAFFDECF4BF0DDCF4CF0010120EEA4
:1039E00003F06DD8DECFC4F1DDCFC5F120EE02F0DB
:1039F00066D8DF50406E4BC0C9FF4BA0D0D7050E34
:103A0000426E050CC5AC05D02F2AC59C050EBCEF37
:103A10005CF0400640280AE1050E0101C827000EAF
:103A2000C923412E01D02AD0C582A4D74DD8DF505A
:103A3000C96E0101C44BC52B1200C5AC06D02F2A9C
:103A4000040EBCEC5CF0C59C1200C586080E426EEC
:103A5000080C080E426EC586080C36D8C9CFDFFFA9
:103A60000101C44BC52B400604E0C59A060E426E08
:103A700003D0C58AD3EC64F0C5881200000EBCEFF9
:103A80005CF02F2A060EBCEF5CF0425001E145D7F6
:103A9000010ACAE0030A98E0010AB4E0070AEEE06E
:103AA000010ACBE0030AD5E0010AE8E00F0AD5E0FD
:103AB000020A01E162D7010A01E174D7E2D7C851D5
:103AC000D926C951DA221200C4C1D9FFC5C1DAFF13
:103AD00012000201C1A506D0800E0001896F030EFD
:103AE000886F030CC1C28BF0030E00018B1705E039
:103AF000800E896F040E886F040C0201B65109E133
:103B0000400E00018A6505D0800E896F020E886F15
:103B1000020C8A860201C55126EC62F0B5D8DDECB4
:103B200006F00201B6051EE18AC062F0220E80ECAA
:103B300063F00A0EDCEC61F0976FF00E9717978731
:103B400097C062F00A0E80EC63F0400E0001626FD5
:103B500080EC63F072EC1CF080EC63F08FD84CECDE
:103B600033F008D075EC1CF080EC63F072EC1CF0C4
:103B700080EC63F00201B65105E18AC062F0000EEC
:103B800080EC63F0F7EC67F0800E41EC67F0000129
:103B9000986B0BD098518825D96E000E8921DA6E6A
:103BA000DF5041EC67F00001982B8A51985DF2E3F9
:103BB000F5EC67F00201C181E70EC117EBEC5EF096
:103BC000030E4CEC33F000016D6B6E6B0A0E6F6FE1
:103BD000706B0201C55130EC57F00201C551DFECAA
:103BE00045F05DEC1CF046E0CB5103E163EC1CF0CA
:103BF0000CE34AEC1CF058EC3AF004EC48F00C0EE4
:103C0000FFEC2CF0E82EFCD71DD0C8C28BF0C9C247
:103C10008CF0CAC28DF0CBC28EF00C0ED890000191
:103C20008B378C378D378E37E82EF8D78BC060F006
:103C30008CC061F08DC062F08EC063F001EC23F0A7
:103C400004EC48F060C093F061C094F062C095F05D
:103C500063C096F093C06DF094C06EF095C06FF0A5
:103C600096C070F00201C75130EC57F00201C75105
:103C7000DFEC45F00001886B896B1200B6C265F07D
:103C8000010E0001666F010C000E00017A6F040E38
:103C9000796F040CEBC0D9FFECC0DAFFDECFEFF098
:103CA000DDCFF0F0000120EE02F0C7D8DECFF2F059
:103CB000DDCFF3F0010EF16FF569EFC09CF0F0C0BD
:103CC0009DF0D6EC36F0F46FF2C085F0F3C086F0CC
:103CD000010E876F5FEC42F0B3EC48F0000908E09A
:103CE000F2C066F0F3C067F0A3EC3EF06651F56FEA
:103CF000F4AFF5BF92D0F16B6CD0F55102E1899031
:103D00008CD089808AD0F55102E1899286D089824F
:103D100084D0F55102E1899480D089847ED0F55118
:103D200002E189967AD0898678D0F55102E18998A6
:103D300074D0898872D0F55102E1899A6ED0898A4F
:103D40006CD0F55102E18D9068D08D8066D0F55130
:103D500002E18D9262D08D8260D0F55102E18C94A7
:103D60005CD08C845AD0F55102E18D9456D08D846C
:103D700054D0F55102E18B9A50D08B8A4ED0F55138
:103D800002E18C9A4AD08C8A48D0F55102E18C9E8F
:103D900044D08C8E42D0F55102E18C9C3ED08C8C6C
:103DA0003CD0F55102E1899E38D0898E36D0F5514C
:103DB00002E1899C32D0898C30D0F55102E18A9E93
:103DC0002CD08A8E2AD0F55102E18A9C26D08A8C8A
:103DD00024D0F45192E0010A96E0030A9AE0010A25
:103DE0009EE0070AA2E0010AA6E0030AAAE0010A8F
:103DF000AEE00F0AB2E0010AB6E0030ABAE0010A37
:103E0000BEE0070AC2E0010AC6E0030ACAE0010AEE
:103E1000CEE01F0AD2E0010AD6E0F15175EC21F0A4
:103E2000DECFEDF0DDCFEEF020EE06F006D8EDC0EF
:103E3000DEFFEEC0DEFFDD6A1200EB51D926EC5149
:103E4000DA2212007BC09EF27CC09FF27DC0A0F2FD
:103E50007EC0A1F2A80E0201A26F610EA36FA46B37
:103E6000A56B500EA66FC30EA76FA86BA96B010EB2
:103E7000B66F070EB86F020EB96F010EBF6FC06B41
:103E8000AB6B080EAA6F0C0EB76F010EBA6FBB6B4F
:103E9000BE6BC10EAD6F940EAE6FC10EAF6F030E51
:103EA000B56F340EAC6FC16BC26B79C0C3F27AC010
:103EB000C4F2BC6BBD6B800ED06FD269D16F980E0F
:103EC000C86F3A0EC96FCA6BCB6B020ED36F0B0E65
:103ED000D46F120ED56FCD6BCE6BCC5123E1B8EC05
:103EE00059F00201C56FB8EC59F00201C66FB8EC89
:103EF00059F00201C76F0C0E0001606FB90E616FBF
:103F0000626B0201C65153EC63F08A0E606FB70E0C
:103F1000616F626B0201C75153EC63F0010E020145
:103F2000CC6F0BD0C55126EC62F00201C65126ECD5
:103F300062F00201C75126EC62F08EEC5FF0000ED9
:103F40000001656F010E666F4CEC33F0CBEC08F0AE
:103F500075EC32F0420EF2EC08F080EC63F03B0EB0
:103F6000DCEC61F07F6F7FBBFAD7230E626F0C0E23
:103F700080EC63F01E0E0001626F0D0E80EC63F0AA
:103F8000AA0E0001626F1F0E80EC63F08F0E00011D
:103F9000626F350E80EC63F000016269320E80ECD6
:103FA00063F0400E0001626F310E80EC63F0010E91
:103FB0000001656F666F000E4CEC33F093866186EE
:103FC000F19E0001806B05D081A602D0939603D0AC
:103FD000802B80AFF9D76196F18E6269230E80EC59
:103FE00063F0420EDCEC61F00201CF6F12008F6BC8
:103FF0008AC090F08BC091F0AFD00301985198EC3B
:104000000CF0DF90985198EC0CF0DF92985198ECFE
:104010000CF0DF94985198EC0CF0DF96985198ECE6
:104020000CF0DF98985198EC0CF0DF9A985198ECCE
:104030000CF0DF9C985198EC0CF0DF9EA1D89851C1
:10404000020D9A0EF324E96E030EF42056EC18F0DC
:1040500061D090C060F091C061F0D0EC5FF060C0C2
:1040600090F061C091F00301985126EC18F0DF68E0
:1040700065D090C06CF091C06DF08C518A256E6F48
:10408000000E8B216F6FF1EC0AF06CC090F06DC0E8
:1040900091F054D090C060F091C061F05AEC62F0A1
:1040A00060C090F061C091F049D090C075F091C0AF
:1040B00076F0FCEC2BF075C090F076C091F03ED01D
:1040C00090C060F091C061F014EC67F060C090F0B7
:1040D00061C091F033D090C082F091C083F05AEC6F
:1040E0002AF082C090F083C091F028D090C067F091
:1040F00091C068F0B9EC60F067C090F068C091F0D2
:104100001DD0010E8F6F8C518A25906F000E8B2170
:10411000916FA9D735D80001904B912BDF50020A3F
:1041200098E0010AA6E0070AB5E0010ABEE0030A2A
:10413000C7E0010AD0E00F0AD9E0E3D703019851A4
:1041400026EC18F0DE2804E0100E986101D0982BC0
:10415000100E981901E1986B00018C518A258D6F22
:10416000000E8B218E6F8D51905D8E51915903E21F
:104170008F5101E142D790C08AF091C08BF01200BC
:1041800090C0D9FF91C0DAFF1200EBC0D9FFECC09C
:10419000DAFFDECFEFF0DDCFF0F0010E0001F16FBE
:1041A000F369EFC09CF0F0C09DF0D6EC36F0F26FF2
:1041B000F2BF80D05AD0000E80B0010EF36F79D0DC
:1041C000000E80B2010EF36F74D0000E80B4010EA9
:1041D000F36F6FD0000E80B6010EF36F6AD0000E41
:1041E00080B8010EF36F65D0000E80BA010EF36F38
:1041F00060D0000E84B0010EF36F5BD0000E84B26D
:10420000010EF36F56D0000E83B4010EF36F51D040
:10421000000E84B4010EF36F4CD0000E82BA010E72
:10422000F36F47D0000E83BA010EF36F42D0000E39
:1042300083BE010EF36F3DD0000E83BC010EF36F01
:1042400038D0000E80BE010EF36F33D0000E80BC5C
:10425000010EF36F2ED0000E81BE010EF36F29D038
:10426000000E81BC010EF36F24D0F251A4E0010ACC
:10427000A7E0030AAAE0010AADE0070AB0E0010ADC
:10428000B3E0030AB6E0010AB9E00F0ABCE0010A94
:10429000BFE0030AC2E0010AC5E0070AC8E0010A5C
:1042A000CBE0030ACEE0010AD1E01F0AD4E0010A04
:1042B000D7E0F16BF15109E0F15117D8DECFEDF005
:1042C000DDCFEEF01FD8DD6A120017D8F3517E6FF4
:1042D0007F6B7EBF7F0721D840EC3FF0F80EED6F7B
:1042E000070EEE6F0FD829EF25F0020DD90EF3243B
:1042F000D96E010EF420DA6E1200F80E7C6F070EF4
:104300007D6F120020EE06F0EB51D926EC51DA2237
:10431000EDC0DEFFEEC0DEFF1200816B0A0E806F83
:104320000A0C0001936F0301E75132EC67F0D1C32F
:1043300091F0000193051DE193C07EF0940E7F6F14
:10434000806B0301DF51F5EC37F0926FDD0E030156
:10435000D1254EEC56F09DD8F55028EC67F00301BE
:10436000E151D15D0A0F176F0D0E17653FD0176F22
:104370003DD0030100BD11D0D16B96D8400EF5ECB5
:1043800037F0926F0A0E28EC67F00301E1510A083A
:10439000176F070E3CEC67F015D0040ED16F84D870
:1043A000080EF5EC37F0926F080E28EC67F0030169
:1043B000E1510E08176F0D0E176501D0176F090E2A
:1043C0003CEC67F0030100BD04D000018C6B8C2B2A
:1043D00002D000018C6B8C3B8C478C470301005151
:1043E00000018C19BF0B8C190301006F91C0D1F330
:1043F000000192514BE1400E946116D094516DEC46
:1044000055F075C08DF076C08EF077C08FF078C013
:1044100090F0070E3CEC67F0150E030140D839D838
:10442000F55019EC67F020D09451EFEC4CF075C0CA
:104430008DF076C08EF077C08FF078C090F0090EC6
:104440003CEC67F0150E03012AD823D8F550800AFA
:10445000650F07E2150E23D81CD8F55019EC67F04C
:1044600003D01A0E19EC67F08DC060F08EC061F0B9
:104470008FC062F090C063F0CBEC43F0010E23ECF0
:1044800067F0000E1EEC67F094C0CCF3000192516F
:104490001200F722F86A000EF82208001200D32555
:1044A000F66EF76AF70E120093C07EF0940E0001CC
:1044B0007F6F806B1200765106E17329FF0E7459ED
:1044C0000F0E755905E373517411751176110CE1D6
:1044D0009ED897D804EC48F060C06DF043EC1CF017
:1044E0005E5030EC57F08AD07F6B806B866B816BAF
:1044F00073C07BF074C07CF075C07DF076C07EF038
:1045000017D0D890763375337433733386C077F011
:10451000010E786F796B772B03D0D8907837793785
:10452000772FFBD7000178517F1379518013862BA9
:104530007651E7E1100E755DE4E269D862D804ECCB
:1045400048F060C082F061C083F062C084F063C054
:1045500085F0060E866515D08651200882C077F05A
:1045600083C078F084C079F085C07AF0E82A05D05D
:10457000D8907A33793378337733E82EF9D7775177
:10458000816F81C060F05E503EEC66F0862905D0F8
:10459000D8908237833784378537E82EF9D70001E2
:1045A0007F517B15776F80517C15786F796B7A6BB3
:1045B0000C0ED8907737783779377A37E82EF9D7D5
:1045C00077C060F078C061F079C062F07AC063F0C3
:1045D00018D804EC48F0605182276151832362515E
:1045E00084236351852382C06DF083C06EF084C044
:1045F0006FF085C070F05E5030EC57F0020E08EF9F
:1046000066F07D0E646F656B666B676B7D0C73C0C7
:1046100077F074C078F075C079F076C07AF00C0E3F
:10462000D8907737783779377A37E82EF9D777C047
:1046300060F078C061F079C062F07AC063F0120077
:10464000030103B163D0E36B0251F00B0209026F67
:1046500000A52AD0EB0E1725A3D849EC22F0F5CF00
:10466000ADF08A51A1D88B2177D804EC48F08ED8D0
:10467000D45130EC57F0A0D893D849EC22F0F5CFC4
:10468000ADF08C5191D88D2167D804EC48F07ED8DC
:10469000D55130EC57F00301D451DFEC45F0030164
:1046A000D551DFEC45F029D0EB0E172579D849EC30
:1046B00022F0F5CFADF0865177D887214DD804ECA4
:1046C00048F064D8D65130EC57F076D869D849EC28
:1046D00022F0F5CFADF0885167D889213DD804ECA0
:1046E00048F054D8D75130EC57F00301D651DFECE5
:1046F00045F00301D751DFEC45F062D8D8A4120091
:104700000251F00B0809026F69EF4FF09DEC63F066
:104710000001AD6FADA90ED0996B9A6B9B6B020E29
:104720009C6F0500FA6E3050FD6E3150FE6EFF6AD0
:10473000FA50120030503110D8B41200996B9A6BB5
:104740009B6B030E9C6F0500FA6E3050FD6E31506E
:10475000FE6EFF6AFA5012000001AF6FB06BB16BD2
:104760000C0ED890AE37AF37B037B137E82EF9D747
:10477000AEC060F0AFC061F0B0C062F0B1C063F035
:104780007D0E646F656B666B676B7D0C60C06DF052
:1047900061C06EF062C06FF063C070F00301120080
:1047A000F66EF76AF60E12000001AD25AE6F000E30
:1047B000ADBFFF0E03011200EB0E03011C2512001A
:1047C000020E030112191200AFD8754B762B8451DB
:1047D00014EC62F0F9E2806B816B826B836B7F6B10
:1047E0002D0E841906E1010E7F6F9ED8754B762B36
:1047F00003D02B0E8419F9E0300E84191DE194D8F2
:10480000754B762B79517A1104E0100E79197A11D3
:104810000DE1780E841903E0580E841907E17A6BD4
:10482000100E796F81D8754B762B06D079517A119D
:1048300003E17A6B080E796F79517A1103E17A6B93
:104840000A0E796F845157EC61F006E384510BEC4A
:1048500065F0C90F846F06D0845135EC63F02EE308
:10486000300E845F84517B6F7C6B79517B5D7C5112
:10487000800A7D6F7A51800A7D5920E279C069F003
:104880007AC06AF01DEC4DF080C06DF081C06EF012
:1048900082C06FF083C070F006EC56F08451692539
:1048A000806F000E6A21816F000E6B21826F000EF7
:1048B0006C21836F39D8754B762BC4D7775178111B
:1048C0000EE0FF0E75257B6FFF0E76217C6F77C0A3
:1048D000D9FF78C0DAFF7BC0DEFF7CC0DDFF7F51EF
:1048E0001AE080C07BF081C07CF082C07DF083C084
:1048F0007EF07B1F7C1F7D1F7E1F7B2B000E7C2389
:104900007D237E237BC075F07CC076F07DC077F080
:104910007EC078F0000C80C075F081C076F082C057
:1049200077F083C078F0120075C0D9FF76C0DAFF47
:10493000DF50846F1200EBC0D9FFECC0DAFFDECF8E
:10494000EFF0DDCFF0F0010E0001F16FEFC09CF051
:10495000F0C09DF0D6EC36F0F26FF2BF5DD0CB0E1A
:10496000F22550EC10F049EC22F0F5A455D00001EE
:10497000F16B38D0000E0BEC5DF02FD0010E0BEC7C
:104980005DF02BD0020E0BEC5DF027D0030E0BEC8C
:104990005DF023D0040E0BEC5DF01FD0050E0BEC88
:1049A0005DF01BD0060E0BEC5DF017D0160E0BEC75
:1049B0005DF013D0070E0BEC5DF00FD0110E0BEC79
:1049C0005DF00BD0190E0BEC5DF007D01B0E0BEC5D
:1049D0005DF003D01A0E0BEC5DF065C0F3F066C01D
:1049E000F4F01AD0F251C6E0010AC8E0030ACAE0A6
:1049F000010ACCE0060ACEE0030AD0E0010AD2E0C8
:104A00000F0AD4E0010AD6E0030AD8E0010ADAE08E
:104A1000070ADCE0010ADEE00001F1510AE0F15191
:104A200075EC21F0DECFEDF0DDCFEEF015D8DD6ACC
:104A300012007DEC21F0F3C07EF0F4C07FF08DEC2D
:104A400021F040EC3FF0F80EED6F070EEE6F04D84A
:104A500000D0200EDF6E200C20EE06F0EB51D926A0
:104A6000EC51DA22EDC0DEFFEEC0DEFF1200090ECF
:104A7000E126000EE222566857685868596877D8D0
:104A800075EC19F0FB0E4EC0E3FF6AD8FE0E51C064
:104A9000E3FFFF0EE36A47D0FF0EE350EBEC40F07C
:104AA000DE043FE1FF0EE35053D8FB0EE3CF4EF0A0
:104AB000DE504E5CFC0E68D8FD0E66D8FE0E64D843
:104AC00005E3FF0EE35044D864D82BD0FF0EE3502B
:104AD0003FD8FB0EE350DE5EFC0EE350DE5AFD0EC7
:104AE000E350DE5AFE0EE350DE5AFF0EE35030D89C
:104AF000F70EE350DE5CF80EE350DE58F90EE3509B
:104B0000DE58FA0EE350DE580CE2FF0EE35020D8D8
:104B1000DECF56F0DECF57F0DECF58F0DECF59F0C3
:104B200026D8FF0EE32AFF0EE3CF4EF046504E5C30
:104B3000B3E3F70EE3CF4EF0F80EE3CF4FF0F90EEC
:104B4000E3CF50F0FA0EE3CF51F0F70E58EF26F016
:104B5000080D000EF324D96E040EF420DA6E120054
:104B6000FC0E4FC0E3FFFD0E50C0E3FFFD0CF70E3F
:104B700056C0E3FFF80E57C0E3FFF90E58C0E3FF3D
:104B8000FA0E59C0E3FFFA0CE3CF4EF0DE504E5858
:104B90001200DE6ADE6ADE6ADD6A1200050EE126B8
:104BA000000EE222030103A103A51FD0FF0EE36A5A
:104BB00009D0FF0EE35026EC18F0020EDE1808E0D4
:104BC000FF0EE32AFF0EE3CF4EF098514E5CF1E367
:104BD000FF0EE350981909E1985126EC18F0020EE7
:104BE000DF6E100E986101D0982B03A52ED0C15115
:104BF00003E167EC3AF00CE35DEC3AF058EC3AF084
:104C000004EC48F03ED80C0E57D8E82EFDD706D05D
:104C10001ED858EC3AF004EC48F033D8FB0E56C0DE
:104C2000E3FFFC0E57C0E3FFFD0E58C0E3FFFE0E8E
:104C300059C0E3FFE150FB0FD96EE2502BD830ECA6
:104C400057F00301D951DFEC45F0FA0E31D0BEC365
:104C500056F0BFC357F0C0C358F0C1C359F00C0E93
:104C6000D8905636573658365936E82EF9D756C0AA
:104C700060F057C061F058C062F059C063F00001A5
:104C80007D0C60C056F061C057F062C058F063C040
:104C900059F01200DA6EFF0EDA22DECF6DF0DECFB1
:104CA0006EF0DECF6FF0DECF70F00301D95112004D
:104CB000E126FF0EE222FF0CD890563657365836C2
:104CC000593612005D505C105B1004E10B0E5A5C0B
:104CD000D8A012005A50605D5B5061595C50625917
:104CE0005D506359D8B0120060C05AF061C05BF0EB
:104CF00062C05CF063C05DF034C076F035C077F020
:104D000036C078F037C079F0CD38030B02E17A6B0A
:104D100003D0CD38030B7A6F7B6BCD38030B02E1E8
:104D20007C6B03D0CD38030B7C6F7D6B7AC064F055
:104D300065696669676B686B642B05D0D8906537C9
:104D4000663767376837642FF9D760516515696F23
:104D5000615166156A6F625167156B6F6351681513
:104D60006C6F7CC06DF06E6B6F6B010E706F716B52
:104D70006D2B05D0D8906E376F37703771376D2F28
:104D8000F9D769516E5D346E6A516F59356E6B514A
:104D90007059366E6C51715963EC2BF005EC2DF0A7
:104DA0004EC072F04FC073F050C074F051C075F037
:104DB00000017651725D646F77517359656F785158
:104DC0007459666F79517559676F64510101BE2737
:104DD000000165510101BF23000166510101C0239B
:104DE000000167510101C123120062EC5FF08DECFC
:104DF00067F0AE0E0001646FB90E656FADEC4EF05A
:104E000076EC67F0F28EF28C010E0001616F120EEB
:104E1000606F66EC64F00401FA6FFB6B010E000139
:104E2000616F130E606F66EC64F00401F96FF95165
:104E3000FB27FA2902E1FB292CE0CEEC0CF074C030
:104E4000F5F475C0F6F40401F551FA1903E1F651D1
:104E5000FB192AE073EC2BF04ED887EC4CF045D8C8
:104E6000E1EC60F0010E9AEC66F00401FC6BFD6B66
:104E7000FCC460F0FDC461F00001626999EC59F076
:104E80000401FC4BFD2B140EFC5D010EFD590CE2E0
:104E9000EFD773EC2BF02FD887EC4CF026D8E1EC51
:104EA00060F0010E9AEC66F02CD88DEC3FF0ECEC43
:104EB00016F02BEC58F060C0F7F461C0F8F427EC62
:104EC00017F0D8A4200E686FF7C469F0F8C46AF030
:104ED00015EC47F008EC5EF050EC5EF04DEC65F040
:104EE00097EC37F046EC30F0F5D7E50E00016B6F2C
:104EF000040E6C6F1200E50E00016F6F040E706FF0
:104F00001200F80E00016B6F070E6C6F12006051FB
:104F1000D96EDA6A0D0E60D8635186D80E0E5CD851
:104F2000D92A635181D80F0E57D8020ED926635162
:104F30007BD80C0E51D8030ED926635175D8435037
:104F4000DF1A7F0E43640CD01B0E43C061F0626B0E
:104F5000D890613762376119646F6251656F05D00F
:104F6000D8904334646F656B653764C043F060511B
:104F7000D96EDA6A53D8040E43D8D92A4FD8050E11
:104F80003FD8020E44D8060E3BD8030E40D8070E79
:104F900037D8040E3CD8080E33D8050E38D8090E81
:104FA0002FD8060E34D80A0E2BD8070E30D80B0E89
:104FB00027D8080E2CD80C0E23D8090E28D80D0E91
:104FC0001FD80A0E24D80E0E1BD80B0E20D80F0E99
:104FD000D9266151DF1A1200D926DF50616F626B4A
:104FE000CB0E6125F66EF50E6221F76EF86A000EA3
:104FF000F8220800F5CF63F06051D96EDA6A12002A
:10500000D9266151DF1A6051D96EDA6A1200D926A9
:10501000DF50616F6051D96EDA6A1200DF50616F44
:105020006051D96EDA6A1200DF1A6051D96EDA6AFD
:105030001200010E0001EF6F7ED85AD859EC5DF0D6
:10504000000943E06AD854D859EC5DF000093DE00E
:1050500072D853D8E4EC23F07551F06F5ED84DD878
:10506000E4EC23F07551F16F66D8DECFEDF05CD83B
:105070004ED82BEC58F0020E6019611126E1F05168
:1050800008E163D858D85CD81FEC45F06051611135
:105090001CE143D8DECFEDF047D839D82BEC58F0DF
:1050A000020E6019611111E1F15108E14ED835D8B5
:1050B00047D81FEC45F06051611107E1F1C062F083
:1050C000F05180EC63F00001EF6BEF51AAEC40F07F
:1050D000DECFEDF0DDCFEEF020EE06F0EB51D9267D
:1050E000EC51DA22EDC0DEFFEEC0DEFFDD6A120019
:1050F000DECF66F0DDCF67F01200DECF75F0DDCFDA
:1051000076F0776B786B7A6B100E796F100C6051BC
:105110006111D8A4200E626F120020EE02F0EB5154
:10512000D926EC51DA221200DDCFEEF0EDC060F0AE
:10513000EEC061F01200EBC0D9FFECC0DAFF120044
:10514000DECF62F0DDCF63F01200490E606FFF0E1C
:10515000616F1200E652030103B176D0020E1219FC
:1051600002E14CEC64F00301CB51C95D4FE349EC23
:105170004BF0596E0D0E5926FF0E59C0E3FFE35058
:105180004F6E506A0301C6514F5CC75150582EE311
:10519000010E91EC21F0000925E15FD869EC1DF0CA
:1051A00063D820E1030170EC36F0CB2BCBB19EEF3E
:1051B0005CF0D15102E19EEF5CF0CB514F6E506A32
:1051C000C951586E596A582A000E59224F50581822
:1051D00005E15050591802E19EEF5CF000EC41F0FF
:1051E0009EEF5CF07CEC50F09EEF5CF066EC66F0BD
:1051F0003050311002E19EEF5CF02AD8040E9C6F13
:1052000002D89EEF5CF00500FA6E17D0CB51C95D55
:1052100002E39EEF5CF003B19EEF5CF066EC66F09B
:105220003050311002E19EEF5CF0000E11D89C6B03
:1052300002D89EEF5CF00500FA6E3050FD6E3150E2
:10524000FE6EFF6AFA50120066EC66F09EEF5CF0AC
:105250000001996B9A6B9B6B12001A0E886F0A0EF5
:10526000896FC6C38AF0120088C04FF089C050F021
:105270004F5050101200B46BB56BA2390F0BB36FC7
:10528000010EB46F31D05BD8B2EC3DF068D8B6EC0B
:1052900061F0B56B75D8B451AE6FAF6BAE3BAF3B41
:1052A000F00EAF17AE510F0BAF13F00EAE17A0C03C
:1052B000B0F0A1C0B1F0AE51B027AF51B123B5519C
:1052C000B027000EB123F00EB025E96EFF0EB1211C
:1052D000EA6EEF50B26F4CD8B219DF6EAA2BB52B25
:1052E0000F0EB565D7D7B42BB451B35DCCE24FD810
:1052F000D8B40F0C24D8B2EC3DF031D8B6EC61F044
:10530000B56B18D03DD8B351100DA0C0AEF0A1C000
:10531000AFF0F350AE27F450AF23B551AE25E96E90
:10532000000EAF21EA6EEF50B06F22D8B019DF6ED9
:10533000AA2BB52B2CD8AE51B55DE4E31200A4C066
:105340006BF0A5C06CF0A6C06DF0A7C06EF0B4C045
:105350006FF0010E706FADC071F0A3511200D60E48
:105360008C6F020E8D6FA8C08EF0A9C08FF0120056
:10537000D60EB525E96EEA6A020EEA22EF50120057
:10538000AA51AB25D96E000EAC21DA6E1200A2C074
:10539000AEF00F0EAE170F0C000120EE04F080D817
:1053A00084D8EDC060F0EEC061F087EC28F02BEC03
:1053B00058F060C0F4F061C0F5F0D890F531ED6FB1
:1053C000F431F06FEDC0F1F0030EF36FEBC0D9FFD5
:1053D000ECC0DAFFAEEC48F084C26BF085C26CF032
:1053E00082C26DF083C26EF077EC56F0EF6F20EE64
:1053F00002F056D837EC3FF0F20E6F6F5CEC46F0DF
:1054000000092AE0F10528E2020EEF6125D020EE26
:1054100004F046D878EC28F059EC5DF000091CE067
:10542000F4C06EF0F5C06FF020EE04F039D884ECD3
:1054300031F061EC2FF0F4A102D0F04BF12BF2C06F
:10544000E2F0F80EE36F070EE46FF0C0E5F0EF5105
:1054500012EC36F00001F36FF351A6EC48F025D8BA
:1054600020EE06F01DD8EDC0DEFFEEC0DEFFDD6AE7
:10547000070EF319D8A412000301E951D8B41200A1
:10548000000E000190EC06F012EC36F0000120EE68
:1054900006F006D814C2DEFF15C2DEFFDD6A120078
:1054A000EB51D926EC51DA221200DECFEDF0DDCF40
:1054B000EEF0120083D8DF50896F824B832B7ED8A9
:1054C000FF0EDE14856FFF0EDE14866FFF0EDE14F6
:1054D000876F000EDE14886F85C069F086C06AF0A1
:1054E00087C06BF088C06CF0640EBDEC08F006EC71
:1054F00056F069C085F06AC086F06BC087F06CC05A
:1055000088F0030E8227000E832358D8DF50846F63
:10551000824B832B89517FEC65F0000932E0895181
:105520006DEC55F08551751909E18651761906E142
:105530008751771903E18851781911E08951EFEC0F
:105540004CF08551751909E18651761906E18751AC
:10555000771903E18851781902E035D805E1030194
:10556000985198EC0CF0DF8E84C062F000018951F4
:105570001EEC4CF0000905E10301985198EC0CF089
:10558000DF8C0301985198EC0CF0DFAE12D09851EB
:1055900098EC0CF0DFAC0DD0000115D805E1646B80
:1055A0008951EFEC61F005D084C067F089517CEC43
:1055B00060F082C082F083C083F0120082C0D9FF05
:1055C00083C0DAFF120085518611871188111200FD
:1055D000010E4A6E37EC25F04EC05AF04FC05BF01A
:1055E00050C05CF051C05DF0CD38030B02E10F6A92
:1055F00003D0CD38030B0F6E106A0FC001F0026AA2
:10560000036A010E046E056A012A01D066D8012ED4
:10561000FDD702505A5C03505B5804505C5805504B
:105620005D58D8B01200CD38030B02E1116A03D0E7
:10563000CD38030B116E126ACD38030B02E1136AE9
:1056400003D0CD38030B136E146A11C001F0026849
:105650000368046A056A012A01D03FD8012EFDD7EC
:105660005A500214066E5B500314076E5C5004140B
:10567000086E5D500514096E13C00AF00B6A0C6ABF
:10568000010E0D6E0E6A0A2A05D0D8900B360C3624
:105690000D360E360A2EF9D706500B5C346E0750C5
:1056A0000C58356E08500D58366E09500E580BD8F0
:1056B00005EC2DF04EC0BEF14FC0BFF150C0C0F19F
:1056C00051C0C1F11200376E34C0E6FF35C0E6FFAD
:1056D00036C0E6FF37C0E6FF1200D8900236033628
:1056E0000436053612000301E20502E146EC55F0EE
:1056F000340E0301E76FE75132EC67F0030172D813
:10570000CF69D06B74D8C66BC76BCAEC06F0CFEC10
:1057100006F0C46BC56BCE6B010ECD6FC26BC36B55
:10572000E06BE16B64D8986B996B03955BD8006B69
:10573000016B070EC96FC86B010ECB6FCA6FD269C0
:10574000126B42D822EC1FF06BEC5CF0050ED36FAD
:10575000A00E186F700E196F080E1A6F370E1B6FA0
:10576000080E1C6FD16B9AEC44F00301966B1D0E72
:105770000001606F030EB7EC56F0690E646F67ECC2
:1057800060F0F7EC5BF0070E896FD00E886F130E98
:105790008B6F880E8A6F170E8D6F700E8C6F070ED1
:1057A000936FD00E926F200E956F400E946F8F6F97
:1057B0008E6B916F906BE86B0001896B886B81EC4D
:1057C0002CF0010E0FEF67F0290E0001796F0B0E20
:1057D0007A6FA00E7B6F700E7C6F080E7D6F370E98
:1057E0007E6F370C026B036B046B056B1200BA6B98
:1057F000BB6BBC6BBD6B12007FD8DF507B6F754BF2
:10580000762B7AD8FF0EDE14776FFF0EDE14786FDA
:10581000FF0EDE14796F000EDE147A6F77C069F028
:1058200078C06AF079C06BF07AC06CF0640EBDECA1
:1058300008F006EC56F069C077F06AC078F06BC0EB
:1058400079F06CC07AF0030E7527000E762377C0CE
:1058500069F078C06AF079C06BF07AC06CF01BEC2C
:105860004EF0000905E10301985198EC0CF0DF8639
:1058700000017B510F0B32EC64F0000905E10301DC
:10588000985198EC0CF0DF8800017B39070B11EC84
:1058900066F0000905E10301985198EC0CF0DF8AED
:1058A0000301985198EC0CF0DFA81FD0985198ECA8
:1058B0000CF0DFA61AD0985198EC0CF0DFAA15D0A6
:1058C00000017B39070B0301E16F77C060F078C0FE
:1058D00061F079C062F07AC063F000017B510F0B78
:1058E000646F16EC65F00301038F010E496E75C0FD
:1058F00075F076C076F0010C75C0D9FF76C0DAFF7E
:10590000120088C069F089C06AF06B6B6C6BE80E9E
:105910006D6F030EF8EC08F006EC56F069C0BEF3AC
:105920006AC0BFF36BC0C0F36CC0C1F3885189116A
:105930001DE10301D95126EC62F00301039500013A
:10594000926B0ED0925126EC18F0020EDE1806E192
:10595000925126EC18F0DF68030198070001922BA2
:10596000030198510001925DEDE3120003010385EC
:1059700002A91200C15103E167EC3AF00BE35DECC0
:105980003AF058EC3AF004EC48F00C0E38D8E82E17
:10599000FDD71DD0BEC38AF0BFC38BF0C0C38CF04F
:1059A000C1C38DF00C0ED89000018A378B378C372D
:1059B0008D37E82EF8D78AC060F08BC061F08CC0BC
:1059C00062F08DC063F001EC23F004EC48F060C09D
:1059D0008EF061C08FF062C090F063C091F08EC015
:1059E0006DF08FC06EF090C06FF091C070F0030149
:1059F000D95130EC57F00301D951DFEF45F0D89081
:105A000060376137623763371200E652E652E6527A
:105A1000E6529AEC46F04EC096F24FC097F250C054
:105A200098F251C099F29AEC46F04EC056F04FC031
:105A300057F050C058F051C059F00201995159180F
:105A400008E19851581805E19751571802E196510D
:105A50005618E9E0CD38030B03E16AEC1AF004D0E4
:105A600058EC1AF063EC1AF0F80EE3CF56F0F90E8A
:105A7000E3CF57F0FA0EE3CF58F0FB0EE3CF59F027
:105A8000FE0EE350E82A05D0D890593258325732EA
:105A90005632E82EF9D756C04FF057C050F04FC0DD
:105AA000E6FF50C0E6FFE6EC5FF0CD38030B03E104
:105AB00079EC1AF004D058EC1AF0B0EC25F0FC0E9A
:105AC000E3CF59F0010E566E576A592A03D0D89089
:105AD00056365736592EFBD756C052F057C053F0A2
:105AE000000E53BEFF0E546E556E525002019627A3
:105AF00053509723545098235550992396C24EF0F3
:105B000097C24FF098C250F099C251F0F80E58EF7A
:105B100026F00001606B030E616F626B636B3FECFC
:105B20005DF0200E0001ED6F290EE82EFED7ED2F5F
:105B3000FCD700D0200E0001ED6F290EE82EFED715
:105B4000ED2FFCD700D0200E0001ED6F290EE82EBE
:105B5000FED7ED2FFCD700D0200E0001ED6F290EEF
:105B6000E82EFED7ED2FFCD700D0200E0001ED6F00
:105B7000290EE82EFED7ED2FFCD700D0200E000115
:105B8000ED6F290EE82EFED7ED2FFCD700D0200EAA
:105B90000001ED6F290EE82EFED7ED2FFCD700D0C7
:105BA000200E0001ED6F290EE82EFED7ED2FFCD759
:105BB00000D0200E0001ED6F290EE82EFED7ED2F4C
:105BC000FCD700D0200E0001ED6F290EE82EFED785
:105BD000ED2FFCD700D0200E0001ED6F290EE82E2E
:105BE000FED7ED2FFCD700D0200E0001ED6F290E5F
:105BF000E82EFED7ED2FFCD700D0FF0012000001E9
:105C0000E66BC0EC11F067EC60F01F0EE517FC0EC0
:105C1000E517E30EE5172AEE0AF0E5C0DFFFE62BF5
:105C2000E76BE7515908D96E000ED8A0E82A03089F
:105C300044D8E765F6D7080EE627E76BE751610819
:105C4000D96E000ED8A0E82A030837D8E765F6D742
:105C5000080EE6277D697C696BEC62F07CC0C4F3BA
:105C60007DC0C5F30A0EE6253BD812EC4CF057EC8C
:105C700051F0020EE627420ED66F030ED76F0A0EC2
:105C8000D86F0A0ED96FE6C0DAF0CAEC52F0D6C06F
:105C9000E1F0D7C0E2F0D8C0E3F0D9C0E4F00A0EDA
:105CA000E6251ED8E10E626F636BF8EC3DF057EC11
:105CB00051F0040EE627E6511200DA6E0A0EDF6F8D
:105CC0000A0EE06FE651DF27000EE023E751DF25E3
:105CD000E96E000EE021EA6EDFCFEFFFE72B070C45
:105CE000606F616B0A0E61231200120EDCEC61F032
:105CF000FB6F700E626F120E80EC63F00001FB51BF
:105D0000500B500AD8A412000201C75126EC62F0D1
:105D10008A961C0EDCEC61F0FD6F0201BA5104E0C2
:105D20000001FBABFDAD4BD0130EDCEC61F00201CA
:105D3000C26FF5EC08F080EC63F0F7EC67F0000E52
:105D400041EC67F00001FD6B08D0FD513CEC35F0F3
:105D500041EC67F0DF6E0001FD2B0201C251000132
:105D6000FD5DF3E3F5EC67F00201C185190EDCEC93
:105D700061F00201D06F040E0001606F0201D0518A
:105D8000A1EC52F00201D06F1A0EDCEC61F0FC6F56
:105D9000630EFC250201D16FD26BFF0ED223D0AF70
:105DA00006D0D051D127000ED0BFFF0E06D0000183
:105DB000FC390F0B0201D127000ED22302D00201C1
:105DC000C187EBEC5EF04CEC33F00201C19343EC85
:105DD00035F013EF02F022EE2CF000EEA7F00F0EDC
